:100000000C9434000C944B000C943E000C943E0075
:100010000C943E000C943E000C943E000C943E0068
:100020000C943E000C943E000C943E000C943E0058
:100030000C943E000C943E000C943E000C943E0048
:100040000C943E000C943E000C943E000C943E0038
:100050000C943E000C943E000C943E000C943E0028
:100060000C943E000C943E0011241FBECFEFD8E04C
:10007000DEBFCDBF0E9440000C9473000C940000C2
:10008000229A2A9A8AB11AB85A9A1092690081E083
:100090008DBB7894FFCF1F920F920FB60F92112451
:1000A0002F938F939F9314BC85B5856085BD80E0A9
:1000B00021E00BC095B115B8A89903C08C34D0F3DA
:1000C00009C025BB8F5F8C3429F095B115B8A89B6A
:1000D000F1CFF7CF2A9A9F918F912F910F900FBE5A
:0A00E0000F901F901895F894FFCFC1
:00000001FF
