S00E0000444132425F432E737265637B
S11300000C9434000C944C000C943E000C943E0070
S11300100C943E000C943E000C943E000C943E0064
S11300200C943E000C943E000C943E000C943E0054
S11300300C943E000C943E000C943E000C943E0044
S11300400C943E000C943E000C943E000C943E0034
S11300500C943E000C943E000C943E000C943E0024
S11300600C943E000C943E0011241FBECFEFD8E048
S1130070DEBFCDBF0E9440000C9468000C940000C9
S1130080229A2A9A8AB11AB85A9A82E0809369000D
S113009081E08DBB7894FFCF1F920F920FB60F9221
S11300A011242F938F939F9385B115B82FEF88E078
S11300B09DE3215080409040E1F700C000002A9A5F
S11300C09F918F912F910F900FBE0F901F901895B5
S10700D0F894FFCFCE
S9030000FC
