:100000000C9434000C9451000C9451000C94510049
:100010000C9451000C9451000C9451000C9451001C
:100020000C9451000C9451000C9451000C9451000C
:100030000C9451000C9451000C9451000C945100FC
:100040000C9451000C9451000C9451000C945100EC
:100050000C9451000C9451000C9451000C945100DC
:100060000C9451000C94510011241FBECFEFD8E026
:10007000DEBFCDBF11E0A0E0B1E0E2EDF7E002C0ED
:1000800005900D92A431B107D9F721E0A4E1B1E0C8
:1000900001C01D92AA32B207E1F70E94AF000C9492
:1000A000E7030C94000080E480937C0085E8809353
:1000B0007A000895109229011092280124E0EAE7BD
:1000C000F0E0A8E7B0E0808180648083808186FDD5
:1000D000FDCF4D915C91119780912801909129015C
:1000E000840F951F90932901809328013FEF80E7AB
:1000F00092E0315080409040E1F700C00000215074
:1001000011F78091280190912901969587959695F0
:100110008795909329018093280108959093C500B5
:100120008093C40088E08093C10086E08093C20081
:100130000895CF93DF93FC012081222369F0DC0135
:100140001196E0ECF0E0C6ECD0E0908195FFFDCF99
:1001500028832D912111F9CFDF91CF9108950E942D
:10016000530087E690E00E948E0080E091E00E94BC
:1001700099002FE78AE196E0215080409040E1F716
:1001800000C000000DE011E00F2EF4E1FF2EF02D75
:10019000C4E1D1E00E945A00809128019091290188
:1001A0009F938F931F930F931F92FF92DF93CF9391
:1001B0000E94EF00CE010E9499009FE72AE186E0AD
:1001C000915020408040E1F700C000008DB79EB7FD
:1001D00008960FB6F8949EBF0FBE8DBFDBCFAEE082
:1001E000B0E0E5EFF0E00C94BE030D891E898F8925
:1001F000988D26E02C831A83098397FF02C080E044
:1002000090E801979E838D83AE01455E5F4F698DB7
:100210007A8DCE0101960E941F014D815E8157FDAE
:100220000AC02F813885421753070CF49A01F80150
:10023000E20FF31F10822E96E4E00C94DA03ABE099
:10024000B0E0E5E2F1E00C94B0036C017B018A01BF
:10025000FC0117821682838181FFCCC1CE010196F9
:100260003C01F6019381F70193FD859193FF819104
:100270007F01882309F4BAC1853239F493FD859151
:1002800093FF81917F01853229F4B60190E00E94AD
:100290001603E7CF912C212C312CFFE1F315D8F078
:1002A0008B3279F038F4803279F08332A1F4232D47
:1002B00020611DC08D3261F0803369F4232D2160EF
:1002C00016C0832D8260382EE32DE4603E2E2AC0B6
:1002D000F32DF8601DC037FC2DC020ED280F2A300B
:1002E00040F08E32B9F436FC81C1232D2064322EC9
:1002F00019C036FE06C08AE0989E200D1124922E69
:1003000011C0EAE02E9E200D1124222EF32DF06262
:100310003F2E08C08C3621F4832D8068382E02C011
:10032000883641F4F70193FD859193FF81917F0118
:100330008111B3CF982F9F7D9554933028F40C5F93
:100340001F4F9FE399830DC0833631F0833771F0DF
:10035000833509F059C021C0F801808189830E5F7F
:100360001F4F88248394912C530113C02801F2E07D
:100370004F0E511CF801A080B18036FE03C0692DDC
:1003800070E002C06FEF7FEFC5010E940B034C01CC
:100390008201F32DFF773F2E16C0280122E0420E86
:1003A000511CF801A080B18036FE03C0692D70E0B9
:1003B00002C06FEF7FEFC5010E9400034C01F32DD7
:1003C000F0683F2E820133FC1BC0822D90E088161E
:1003D0009906B0F4B60180E290E00E9416032A94D8
:1003E000F4CFF50137FC859137FE81915F01B601AD
:1003F00090E00E94160321102A9421E0821A9108AD
:100400008114910471F7E8C0843611F0893641F502
:10041000F80137FE07C060817181828193810C5F92
:100420001F4F08C060817181072E000C880B990B4B
:100430000E5F1F4FF32DFF763F2E97FF09C090955B
:100440008095709561957F4F8F4F9F4FF0683F2E3D
:100450002AE030E0A3010E945203882E861845C08E
:10046000853731F4232D2F7EB22E2AE030E025C0CF
:10047000932D997FB92E8F36C1F018F4883579F015
:10048000B5C0803719F0883721F0B0C0E92FE0619E
:10049000BE2EB4FE0DC0FB2DF460BF2E09C034FE8D
:1004A0000AC0292F2660B22E06C028E030E005C021
:1004B00020E130E002C020E132E0F801B7FE07C0E1
:1004C00060817181828193810C5F1F4F06C06081C2
:1004D000718180E090E00E5F1F4FA3010E945203E4
:1004E000882E8618FB2DFF773F2E36FE0DC0232D5C
:1004F0002E7FA22E891458F434FE0BC032FC09C0A2
:10050000832D8E7EA82E05C0B82CA32C03C0B82C3A
:1005100001C0B92CA4FE0FC0FE01E80DF11D8081C1
:10052000803321F49A2D997EA92E09C0A2FE06C01F
:10053000B394B39404C08A2D867809F0B394A3FCD5
:1005400011C0A0FE06C0B21488F4280C922C9B188F
:100550000EC0B21460F4B60180E290E00E9416036F
:10056000B394F7CFB21418F42B1802C0982C212C96
:10057000A4FE10C0B60180E390E00E941603A2FE24
:1005800017C0A1FC03C088E790E002C088E590E0B6
:10059000B6010CC08A2D867859F0A1FE02C08BE20C
:1005A00001C080E2A7FC8DE2B60190E00E94160334
:1005B000891438F4B60180E390E00E9416039A94FF
:1005C000F7CF8A94F301E80DF11D8081B60190E028
:1005D0000E9416038110F5CF222009F442CEB60105
:1005E00080E290E00E9416032A94F6CFF6018681FD
:1005F000978102C08FEF9FEF2B96E2E10C94CC0322
:10060000FC010590615070400110D8F780959095DD
:100610008E0F9F1F0895FC016150704001900110E2
:10062000D8F7809590958E0F9F1F08950F931F9375
:10063000CF93DF93FB01238121FD03C08FEF9FEF59
:100640002CC022FF16C04681578124813581421774
:10065000530744F4A081B1819D012F5F3F4F318347
:1006600020838C93268137812F5F3F4F37832683EA
:1006700014C08B01EC01FB010084F185E02D09958C
:10068000892BE1F6D80116968D919C9117970196CA
:1006900017969C938E931697CE01DF91CF911F9161
:1006A0000F910895FA01AA27283051F1203181F1E4
:1006B000E8946F936E7F6E5F7F4F8F4F9F4FAF4F6A
:1006C000B1E03ED0B4E03CD0670F781F891F9A1F7D
:1006D000A11D680F791F8A1F911DA11D6A0F711D31
:1006E000811D911DA11D20D009F468943F912AE03D
:1006F000269F11243019305D3193DEF6CF01089525
:10070000462F4770405D4193B3E00FD0C9F7F6CF55
:10071000462F4F70405D4A3318F0495D31FD40521D
:10072000419302D0A9F7EACFB4E0A69597958795B3
:1007300077956795BA95C9F7009761057105089592
:100740009B01AC010A2E069457954795379527953E
:10075000BA95C9F7620F731F841F951FA01D0895D6
:100760002F923F924F925F926F927F928F929F92C1
:10077000AF92BF92CF92DF92EF92FF920F931F93AF
:10078000CF93DF93CDB7DEB7CA1BDB0B0FB6F89460
:10079000DEBF0FBECDBF09942A88398848885F84A0
:1007A0006E847D848C849B84AA84B984C884DF8011
:1007B000EE80FD800C811B81AA81B981CE0FD11DF5
:1007C0000FB6F894DEBF0FBECDBFED010895F894CB
:0207D000FFCF59
:1007D200436F6E6E6563746564210D0A0025336490
:0407E2000D0A0000FC
:00000001FF
