:100000000C9434000C944E000C943E000C943E0072
:100010000C943E000C943E000C943E000C943E0068
:100020000C943E000C943E000C943E000C943E0058
:100030000C943E000C943E000C943E000C943E0048
:100040000C943E000C943E000C943E000C943E0038
:100050000C943E000C943E000C943E000C943E0028
:100060000C943E000C943E0011241FBECFEFD8E04C
:10007000DEBFCDBF0E9440000C9469000C940000CC
:10008000229A2A9A8AB11AB85A9A1092690081E083
:100090008DBB789485B5856085BDFFCF1F920F928B
:1000A0000FB60F9211242F938F939F9389E491E0C1
:1000B00025B115B8A89BFECF16BC95BB8150C1F7E2
:1000C0002A9A9F918F912F910F900FBE0F901F90A2
:0600D0001895F894FFCF23
:00000001FF
