:020000020000FC
:0200000002C03C
:100004000FC004E004B905B910E01AB95A9A000007
:1000140042E04093690041E04DBB78940C94100099
:100024005BEF55B905D00FD00ED010D005B9189597
:100034000AD009D008D007D006D005D004D003D008
:1000440002D001D0089502D001D0089505D004D083
:1000540003D002D001D0089502D001D0089505D074
:1000640004D003D002D001D008950F932F930FEF43
:1000740026E0000000000000000000000000000076
:1000840000000A95B1F72A95A1F72F910F910895D1
:00000001FF
