:020000020000FC
:1000000004E004B905B910E017B908B9000046B119
:10001000409544704430D9F75BEF55B902D005B92B
:10002000F6CF04D00ED00DD00FD008950AD009D04D
:1000300008D007D006D005D004D003D002D001D01C
:10004000089502D001D0089505D004D003D002D085
:1000500001D0089502D001D0089505D004D003D076
:1000600002D001D008950F932F930FEF26E00000E8
:1000700000000000000000000000000000000A95E1
:0C008000B1F72A95A1F72F910F91089578
:00000001FF
