:100000000C9434000C9446000C9446000C9446006A
:100010000C9446000C9446000C9446000C94460048
:100020000C9446000C9446000C9446000C94460038
:100030000C9446000C9446000C9446000C94460028
:100040000C9446000C9446000C9446000C94460018
:100050000C9446000C9446000C9446000C94460008
:100060000C9446000C94460011241FBECFEFD8E03C
:10007000DEBFCDBF21E0A0E0B1E001C01D92A23003
:10008000B207E1F70E9448000C946E000C94000047
:10009000229A8FE886BD14BC85E085BD3FE821E04B
:1000A000A89BFECF36BD25BB809100019091010138
:1000B00001969093010180930001CC9711F485B1D2
:1000C00015B880910001909101018436910541F7A6
:1000D0002A9A1092010110920001E2CFF894FFCF0A
:00000001FF
