S0190000444132435F496E745F4E6F726D616C5F422E737265631E
S11300000C9434000C9453000C9446000C94460059
S11300100C9446000C9446000C9446000C94460044
S11300200C9446000C9446000C9446000C94460034
S11300300C9446000C9446000C9446000C94460024
S11300400C947A000C9446000C9446000C944600E0
S11300500C9446000C9446000C9446000C94460004
S11300600C9446000C94460011241FBECFEFD8E038
S1130070DEBFCDBF21E0A0E0B1E001C01D92A230FF
S1130080B207E1F70E9448000C94A2000C9400000F
S1130090229A2A9A8AB11AB85A9A1092690081E06F
S11300A08DBB7894FFCF1F920F920FB60F9211243D
S11300B08F939F93EF93FF93EEE6F0E0808181604E
S11300C08083789414BC85B5856085BD80910001DA
S11300D0909101018C349105ECF31092010110927E
S11300E00001FF91EF919F918F910F900FBE0F90A0
S11300F01F9018951F920F920FB60F9211242F93F1
S11301008F939F9321E00EC085B115B8A89B0AC0B8
S113011025BB80910001909101010196909301010A
S11301208093000180910001909101018C3491052C
S11301305CF32A9A9F918F912F910F900FBE0F908D
S10B01401F901895F894FFCFFD
S9030000FC
