S0190000444132435F435F494E545F4E6F726D616C2E737265635D
S11300000C9434000C944E000C943E000C943E006E
S11300100C943E000C943E000C943E000C943E0064
S11300200C943E000C943E000C943E000C943E0054
S11300300C943E000C943E000C943E000C943E0044
S11300400C943E000C943E000C943E000C943E0034
S11300500C943E000C943E000C943E000C943E0024
S11300600C943E000C943E0011241FBECFEFD8E048
S1130070DEBFCDBF0E9440000C945D000C940000D4
S1130080229A2A9A8AB11AB85A9A1092690081E07F
S11300908DBB789485B1847085B9FCCF1F920F9283
S11300A00FB60F92112485B115B816BC85E085BD35
S11100B081E085BB16BC85BBFCCFF894FFCF66
S9030000FC
