:100000000C9434000C944B000C943E000C943E0075
:100010000C943E000C943E000C943E000C943E0068
:100020000C943E000C943E000C943E000C943E0058
:100030000C943E000C943E000C943E000C943E0048
:100040000C9470000C943E000C943E000C943E0006
:100050000C943E000C943E000C943E000C943E0028
:100060000C943E000C943E0011241FBECFEFD8E04C
:10007000DEBFCDBF0E9440000C947A000C940000BB
:10008000229A2A9A8AB11AB85A9A1092690081E083
:100090008DBB7894FFCF1F920F920FB60F92112451
:1000A0008F939F93EF93FF93EEE6F0E08081816062
:1000B0008083789485B5856085BD90E085B115B85D
:1000C00086B5823008F49F5F9B34C0F32A9AFF9173
:1000D000EF919F918F910F900FBE0F901F901895E9
:1000E0001F920F920FB60F9211240F900FBE0F9018
:0800F0001F901895F894FFCF52
:00000001FF
